:040000008A110D282C
:10000800FE00030EF0000408F1000A08F2008A114D
:1000180053298A11982A7F3083168500103086006C
:10002800D83087008312850186018701831603175C
:100038008901013003139500960103178800813068
:10004800831203139F00B03083169F00831265301C
:100058001F1483168F008530810020308B0060309C
:100068008B138312810067308316930083128C11DF
:100078008316940138308312940083169101442822
:10008800F3208A116830F300003016218A111B3AD8
:1000980003190800063055208A111B3A0319080075
:1000A8003C29F4008312AC01AD0174089300831657
:1000B800141C6B288312AC0A0319AD0AEB208A11B1
:1000C8001B3A031D5B281B30AC01AD01080012214F
:1000D8008A11F930F3006400F30B6F287328640069
:1000E80083160313111F01340034A000F3208A1172
:1000F8006830F300003016218A111B3A03190800F2
:100108009F3055208A111B3A031908003C218A1197
:10011800F3208A116830F300013016218A111B3A46
:10012800031908000030B1208A1183120313A100BB
:100138000030B1208A1183120313A2000130B120CC
:100148008A1183120313A300200884002208831352
:100158008000840A230880003C29F4008312AC0143
:10016800AD01831691158316911DC7288312AC0A19
:100178000319AD0AEB208A111B3A031DB7281B305F
:10018800AC01AD01080083121308F5008316141C96
:10019800D7288312AC0A0319AD0AEB208A111B3A3F
:1001A8000319C328CA2812218A11F408031DDF285D
:1001B80083169112E12883169116F9301116F3006F
:1001C8006400F30BE428E8286400750808002D088B
:1001D800EA3A603003192C0603191B3401348312E0
:1001E8000313AC01AD01831611148316111C0829E1
:1001F8008312AC0A0319AD0AEB208A111B3A031DBE
:10020800F928AC01AD01080012218A11F930F30078
:100218006400F30B0C2910296400080083128C1168
:1002280014130800F50083120313AC01AD01031089
:10023800730D750493008316141C2E298312AC0ABF
:100248000319AD0AEB208A111B3A031D1F29AC01C3
:10025800AD011B3412218A11F930F4006400F40B4B
:1002680032293629640083160313111F01341B3405
:100278008312AC01AD01831611158316111D502987
:100288008312AC0A0319AD0AEB208A111B3A031D2D
:100298004129AC01AD010800122164000800831255
:1002A80003138C1D59298C1114130B1D0C2AF90AE0
:1002B8000319FA0A7908643A7A04031D002AF90135
:1002C800FA01F70A0319F80A77083C3A7804031D7B
:1002D800002AF701F801AE0A0319AF0A2E083C3AC2
:1002E8002F04031D002AAE01AF01002A19228A112A
:1002F80003197902031C992900301E228A11031C54
:100308008C297A020F3003197902031C99290030CD
:100318007A02153003197902031C9B2900307A02EE
:1003280019300319790203189B290610F4290610BD
:10033800BD2919228A1103197902031CBC2900302E
:100348001E228A11031CAF297A020F300319790281
:10035800031CBC2900307A02153003197902031CEA
:100368009B2900307A0219300319790203189B2956
:10037800061486100C2A0030061586117A020530FC
:10038800B82906158611CA298615061100307A0281
:10039800053095290030861506117A0205300319B3
:1003A8007902031C992900307A0206300319790270
:1003B8000030031CE6297A025F3003197902031C16
:1003C8009B2900307A026030031979020318BC298E
:1003D8000C2A23228A1103197902031CBC2906144A
:1003E80086140C2A23228A1103197902031C9929DD
:1003F800F3290530B0000C2A3008840008300402C4
:100408000318FD2902308A000310040DA83E82005B
:10041800633081000B118B1072088A007108840008
:10042800700E8300FE0E7E0E090000308611061144
:100438007A0205347A020B3003197902003400304D
:10044800861106117A025F348A110F208A118B17E0
:1004580083120313B001B00A851783120313AA018C
:10046800AB011A3083120313A900F830A800A80BB7
:100478003B2AA90B3B2A640083120313AA0A031917
:10048800AB0A2B08803AFF0080307F02031D4E2AFA
:1004980014302A02031C352A8A11B8228A117408DA
:1004A8008312B4007308B30031308A1179208A119D
:1004B8008312031331088A1169228A1183120313E4
:1004C80032088A1169228A11312AF4008B138613A3
:1004D8001A30F300F30B6E2AF501F601741C782A22
:1004E8008312031386177B2A8312031386131A3089
:1004F800F300F30B7D2A0310F40CF50A0319F60A2E
:100508007608803AFF0080307F02031D8D2A08306C
:100518007502031C722A8312031386171A30F3001C
:10052800F30B942A8B170800F701F801F901FA0177
:10053800AC01AD01AE01AF01B001B101B201B3012F
:10054800B40183018A11282A8A117A298A11BF29BC
:100558008A11C8298A11C5298A11CE298A11ED293B
:100568008A11F6298A119D29831203139F149F1853
:10057800BB2A1E08F400F30183161E08F3040800C2
:04400E00B42BFF3F91
:00000001FF
